:020000040800F2
:100000000020002091610008895C00088D5C0008D8
:1000100000000000000000000000000000000000E0
:10002000000000000000000000000000915C0008DB
:100030000000000000000000955C0008995C0008CA
:10004000E1610008E1610008E1610008E161000888
:10005000E1610008E1610008E1610008A15C0008BD
:10006000E1610008B55C0008E1610008E161000899
:10007000C55C0008E161000800000000E1610008C3
:1000800000000000E1610008000000000000000026
:10009000E161000800000000E1610008E161000882
:1000A000E1610008E1610008E1610008D55C000839
:1000B000E55C0008355D000800000000E161000813
:1000C00010B5064C2378002B07D1054B002B02D02E
:1000D000044800E000BF0123237010BDE8010020A8
:1000E0000000000070AC0008044B10B5002B03D0DA
:1000F0000349044800E000BF10BDC04600000000F6
:10010000EC01002070AC00080023C25C0133002A1F
:10011000FBD1581E7047000002B4714649084900DF
:10012000095C49008E4402BC7047C04603B4714666
:10013000490840004900095E49008E4403BC7047ED
:10014000002243088B4274D303098B425FD3030A16
:100150008B4244D3030B8B4228D3030C8B420DD329
:10016000FF22090212BA030C8B4202D312120902B7
:1001700065D0030B8B4219D300E0090AC30B8B42F5
:1001800001D3CB03C01A5241830B8B4201D38B03A3
:10019000C01A5241430B8B4201D34B03C01A524148
:1001A000030B8B4201D30B03C01A5241C30A8B428B
:1001B00001D3CB02C01A5241830A8B4201D38B0276
:1001C000C01A5241430A8B4201D34B02C01A52411A
:1001D000030A8B4201D30B02C01A5241CDD2C3098C
:1001E0008B4201D3CB01C01A524183098B4201D308
:1001F0008B01C01A524143098B4201D34B01C01AF3
:10020000524103098B4201D30B01C01A5241C3086A
:100210008B4201D3CB00C01A524183088B4201D3D9
:100220008B00C01A524143088B4201D34B00C01AC5
:100230005241411A00D20146524110467047FFE731
:1002400001B5002000F0F0F802BDC0460029F7D04B
:1002500076E7704703460B437FD4002243088B4266
:1002600074D303098B425FD3030A8B4244D3030B3D
:100270008B4228D3030C8B420DD3FF22090212BA02
:10028000030C8B4202D31212090265D0030B8B427E
:1002900019D300E0090AC30B8B4201D3CB03C01A68
:1002A0005241830B8B4201D38B03C01A5241430B43
:1002B0008B4201D34B03C01A5241030B8B4201D333
:1002C0000B03C01A5241C30A8B4201D3CB02C01A9E
:1002D0005241830A8B4201D38B02C01A5241430A16
:1002E0008B4201D34B02C01A5241030A8B4201D305
:1002F0000B02C01A5241CDD2C3098B4201D3CB01AC
:10030000C01A524183098B4201D38B01C01A52415A
:1003100043098B4201D34B01C01A524103098B425E
:1003200001D30B01C01A5241C3088B4201D3CB0049
:10033000C01A524183088B4201D38B00C01A52412C
:1003400043088B4201D34B00C01A5241411A00D2DC
:1003500001465241104670475DE0CA0F00D0494245
:10036000031000D34042534000229C4603098B42B5
:100370002DD3030A8B4212D3FC22890112BA030A3D
:100380008B420CD3890192118B4208D389019211BF
:100390008B4204D389013AD0921100E08909C30944
:1003A0008B4201D3CB01C01A524183098B4201D346
:1003B0008B01C01A524143098B4201D34B01C01A31
:1003C000524103098B4201D30B01C01A5241C308A9
:1003D0008B4201D3CB00C01A524183088B4201D318
:1003E0008B00C01A5241D9D243088B4201D34B0033
:1003F000C01A5241411A00D20146634652415B1075
:10040000104601D34042002B00D549427047634655
:100410005B1000D3404201B5002000F005F802BD9A
:100420000029F8D016E770477047C0468446101C74
:1004300062468C46191C634600E0C0461FB501F0B9
:100440008FF8002801D40021C8421FBD10B500F06C
:10045000D9FF4042013010BD10B501F081F80028ED
:1004600001DB002010BD012010BDC04610B501F019
:1004700077F8002801DD002010BD012010BDC04626
:1004800010B500F0FBFF002801DC002010BD0120AA
:1004900010BDC04610B500F0F1FF002801DA0020C1
:1004A00010BD012010BDC046002B11D1002A0FD174
:1004B000002900D1002802D00021C943081C07B43C
:1004C000024802A14018029003BDC0465DFFFFFF35
:1004D00003B4684601B5029800F076F8019B9E4689
:1004E00002B00CBC7047C04670B500220C4B040033
:1004F0000D00FFF7CFFF002804D12000290001F0F4
:10050000BBFE70BD064B00222000290001F004FB59
:1005100001F0B2FE80231B069C466044F1E7C04612
:100520000000E04170B505000C0000220023280007
:100530002100FFF791FF002808D12800210000F0DA
:100540000FF802000B001000190070BD80231B067D
:10055000E118280000F004F8002342428B41F2E742
:1005600070B500220B4B0D00040001F069F8FFF795
:10057000BBFF060001F0E6FE0022074B01F060F829
:1005800002000B002000290001F0C6FAFFF7ACFFC3
:10059000310070BD0000F03D0000F04170B5060074
:1005A000080001F09FFE0022064B01F049F80D0003
:1005B0000400300001F0C6FE2B00220000F0D0F84D
:1005C00070BDC0460000F041F0B557464E46454666
:1005D000DE46E0B504000D009246994683B08B429A
:1005E00030D82DD04946504601F078FF290006004A
:1005F000200001F073FF331A9846203B9B4633D40A
:100600005A465346934042461F00534693401E00AD
:10061000AF423AD8AF4200D178E05B46A41BBD415F
:10062000002B00DA75E000220023009201930123E1
:100630005A4693400193012342469340009328E099
:100640008242CFD900220023009201930C9B002B01
:1006500001D01C605D600098019903B0F0BCBB46FE
:10066000B246A946A046F0BD424620239B1A5246F8
:10067000DA40414613004A468A40170042461F436B
:10068000534693401E00AF42C4D90022002300927B
:1006900001934346002BD9D0FB0772081A43464604
:1006A0007B080EE0AB4201D1A2420CD8A41A9D41B6
:1006B000012024196D410021013E24184D41002ED6
:1006C00006D0AB42EED9013E24196D41002EF8D17F
:1006D000009801995B4600196941002B24DB2B002F
:1006E0005A464446D3402A00E2401C005B461500AF
:1006F000002B2ADB26009E40330026004746BE40E2
:100700003200801A9941009001919FE7A342BCD822
:1007100083E74246202300219B1A00220091019288
:100720000122DA40019286E7424620239B1A2A00E2
:1007300046469A402300F340444613432A00E240D1
:100740001C005B461500002BD4DA42462F00202304
:10075000260097409B1ADE403B003343CDE7C0465E
:10076000F0B54F46D64646460D0001001800C0B50C
:1007700017002B035A0A4B0F1343CA00914602037A
:100780006E004100520AEC0F7D0F1543760D490DA6
:10079000C00F8246AC46FF00721A844200D198E036
:1007A000002A00DC81E0002900D1B6E0C9498E4270
:1007B00000D172E180212800090408438446382AC8
:1007C00000DD5EE11F2A00DDEEE1202039006546F4
:1007D000801A8740D14085400D4339004F1EB941F2
:1007E0006746D7402943DB1B4A46551AA94589412C
:1007F00049425B1A984643461B0200D4CCE043466C
:100800005B025B0A98464346002B00D12CE1404630
:1008100001F046FE01000839202228004346521A02
:100820008B40D0408D4003438E4200DD17E18E1B8C
:10083000721C1F2A00DDA7E1202118002E00891A52
:100840008D408840D640D340691E8D413043984644
:10085000002605436B0709D00F232B40042B05D03E
:100860002B1DAB42AD416D42A8441D0043461B0207
:1008700000D494E0974B721C9A4200D19DE041460F
:10088000954BED0819400B00520549075B022943BF
:100890001B0B520D12051343E407234308001900F4
:1008A000E0BCBA46B146A846F0BD002A43D08A1B38
:1008B000002E00D02AE14C461C4300D1D1E1541E49
:1008C000012A00D11FE2834DAA4200D172E2220028
:1008D00023E1002A00DC98E0002942D07D498E42C5
:1008E00000D1DAE080212800090408438446382A30
:1008F00000DD29E11F2A00DC87E11100654620396F
:10090000CD40202A04D040206146821A91400F43F6
:1009100039004F1EB9410D431BE12900394300D175
:10092000B5E0511E012A00D1ABE16A48824200D1F4
:10093000B2E10A0043E76949751C0D4200D0CFE0DF
:10094000002E00D093E14946194300D1D1E1614620
:10095000394300D0E3E149465807C9080143DB08A1
:1009600026E02900394300D191E0511E012A05D02B
:100970005848824200D18FE10A00B8E73D004D445B
:100980004D4589416344984649428844434602267E
:100990001B0200D5EBE0013E6B0700D05CE743464D
:1009A000E9085A0711433200DB084A48824221D045
:1009B0001B0352051B0B520D6CE70023002169E756
:1009C0002A003A4369D04A465807D108DA088023FA
:1009D0001B0308431A4207D02900ED081D4203D12A
:1009E0002A00FF0848073843430FC1005B07C908C6
:1009F000194313000A001A4300D113E280221203A4
:100A000013431B03334A1B0B44E7002A4BD08A1BBA
:100A1000002E00D1E7E02F48814200D195E18020EF
:100A200000040343382A00DD43E11F2A00DDDBE137
:100A300020201D004E46801A8540D64035434E4644
:100A400086403000D340461EB0419C440543ED191A
:100A5000BD429B415B42634498460E007FE01E4AC4
:100A6000761A13409846F5E6280001F019FD0100BA
:100A700018311F2900DCCFE62B0008388340002501
:100A8000D2E662463A4311004F1EB941ACE64946F0
:100A90005807C9080143DB0887E749465A07C908D0
:100AA0001143DB08A6E70D49701C084200D0BBE0EB
:100AB000002E00D014E14946194300D175E1290008
:100AC000394300D07EE149465807C9080143DB0895
:100AD0006EE7C046FF070000FFFF7FFFFE07000034
:100AE0004946CD1B6146581AA94589414942884665
:100AF00001004046091A8846090200D5A6E0414691
:100B0000294300D07FE60023002451E7C74CA142CF
:100B100000D1C7E0802424042343382A54DC1F2A50
:100B200000DDCCE020244846A41A1D004E46A0401B
:100B3000D640A5400400D34062463543661EB4410A
:100B4000D31A9C46254344E062463A4315006F1E83
:100B5000BD414D444D4589414942884698444346EC
:100B60001B0200D418E7B14B01369E4249D04246E1
:100B7000AF4B01211A4013006A080D401543D907F5
:100B80005B0898460D4365E618001F3EF040202A9A
:100B900003D040218A1A93401D43691E8D410023D2
:100BA000002698460543F7E6110065462039CD40FA
:100BB000202A04D040206146821A91400F43390018
:100BC0004F1EB94129430FE64A4613431D006B1ED1
:100BD0009D417D1BAF429B4162465B42D31A9846C2
:100BE00054460E0007E64846184300D1B3E0501EB5
:100BF000012A00D10DE18D4DAA4200D1A5E00200ED
:100C000010E732000023002144E620213800891A31
:100C100065468F408D40D040791E8F4105433D434E
:100C20006746D740DB1994E7804A904200D1ECE058
:100C30003900494449459241634452429B18DD07BB
:100C400049085B08984606000D43A5E64A46BD1ACA
:100C5000AF42894162464942D31A5B1A98465446CC
:100C6000D1E56C07F9082143EB0804009DE64A46EC
:100C70001A4375D16146394314D1802300241B03E4
:100C8000BCE64A46D51BA9458941624649429B1AA2
:100C90005B1A98460126AEE54A46D1085A07114329
:100CA000DB08A7E66346F9085A0754461143DB08F8
:100CB000A0E64A4613431D006B1E9D41C7E6140083
:100CC0001E00203CE640202A05D04024A21A934072
:100CD0004A461A4391464D466B1E9D41354378E77F
:100CE0004A461A4300D06BE66B07F9081943EB0834
:100CF00080E66146394354D06346F9085C072143D6
:100D0000DB08040054E64A46BD1AAF4289416246F8
:100D10004942D31A5B1A9846040001266BE54A46FD
:100D2000D51BA9458941624649429A1A521A9046F2
:100D3000120232D54A46BD1AAF4289416246494243
:100D4000D31A5B1A9846040084E56346F9085A07EB
:100D50001143DB084EE6F90868070143EB0824E677
:100D600062463A4300D198E64A46D1085A071143F1
:100D7000DA0880231B031A4208D06046C5081D42CA
:100D800004D154462A00F908430719434B0FC90000
:100D90005B07C908194313002CE64146294300D0DC
:100DA000FAE500230A00002402E66B07F90819435C
:100DB000EB08FDE56346F9085B0719436346040049
:100DC000DB0817E63D004D4463444D458941984694
:100DD0004942884443461B0200D4DDE54246144B99
:100DE00001261A409046D7E510001E002038C64064
:100DF000202A05D04020821A93404A461A43914641
:100E00004D466B1E9D41354321E602000023002123
:100E100040E54A46D519BD42894163449846494256
:100E20008844B3E50021014A0B0033E5FF070000C9
:100E3000FFFF7FFFF0B557464E464546DE46E0B51C
:100E4000814605000C03480092461F0085B0240B24
:100E5000400DCE0F002859D0874B984200D198E022
:100E60006B0FE4001C4380231B0423439846834BF1
:100E7000ED009B4600239946834400933C037B008E
:100E80005046240B5B0DFF0F002B67D07A4A93422C
:100E900018D07A49420F8C46E40059461443802208
:100EA00063441204CB1A14439B46C2000020330053
:100EB0007B409A464B460F2B00D9EFE070499B00D0
:100EC000CB589F466F4B52469C462243E344002A30
:100ED00000D095E0494602231943894600240220A8
:100EE000E5E700230024002552461B052343D207D3
:100EF00013432800190005B0F0BCBB46B246A94612
:100F0000A046F0BD002400255B4BEDE74B46234394
:100F1000984600D189E0002C00D1E0E1200001F0EA
:100F2000BFFA010002000B391D235B1A494610006D
:100F3000D940083884400B004D46234398468540ED
:100F400051483C03831A9B460023994600937B003B
:100F50005046240B5B0DFF0F002B97D152462243C6
:100F600055D0002C00D1CAE1200001F099FA02000E
:100F70000B3A1D2301009B1A52460839DA408C4077
:100F8000144352468A40414B58449B4683440020B8
:100F90008DE74B462343984640D108239946063BAC
:100FA00000258346009369E7B246009B022BA9D037
:100FB000032B00D111E2012B93D0354A5A44002A69
:100FC00000DC3CE16B0700D0A7E1ED084346DB0104
:100FD00006D542462F4B1A4090468022D2005A44F2
:100FE0002D4B9A428EDC4346520558075C0205435E
:100FF000240B530D78E7BA46A04615000090D4E7BD
:101000004A4603231A439146032052464FE7494676
:101010000123194389460024012048E70C239946FF
:10102000093BA0468346009328E704239946002302
:101030009B4601330025009320E7002380249A4635
:1010400000250D4B24034FE7802341461B03194223
:1010500008D01C4206D11C432403BA461500064B97
:10106000240B41E78024434624031C432403B24657
:10107000014B240B38E7C046FF07000001FCFFFFCF
:1010800088AC000801F8FFFF0DFCFFFFF303000030
:10109000FF030000FFFFFFFEFE070000444500D2F3
:1010A00016E100D111E101235B429C462E0040462F
:1010B0000025E3442302140E1C431B0C9946230411
:1010C0001F0C1202494600920197FFF7BFF8020079
:1010D0007A430B04310C804619438A420BD9012311
:1010E0005B429C460919E0448C4204D88A4202D9EA
:1010F000831E98460919881A4946FFF7A7F809047C
:101100008C4631046646019A090C42430300314380
:101110008A4204D90919013B8C4200D811E1891A8D
:101120004246009E12041A43330C1F00100C9046D6
:10113000029313043204160C32001B0C5A4303961C
:101140007B4346437843170CBC469B1963449E423D
:1011500003D980267602B44660441E0C301816046B
:101160001B04360C9E19814200D29CE000D197E00E
:10117000AE1B091AB54280414042081A844200D190
:1011800011E14946FFF762F8019A0B044243310C22
:10119000050019438A4207D90919013D8C4203D839
:1011A0008A4201D9851E0919881A4946FFF74EF867
:1011B00009048C4631046646019A090C4243030037
:1011C00031438A4207D90919013B8C4203D88A422C
:1011D00001D9831E0919039E891A32002D041D436B
:1011E000029F2B041B0C5A437B439C46280C46430E
:1011F000130CB444634478439E4203D9802676029C
:10120000B44660441E0C12041B04120C30189B18C8
:10121000814206D302D001231D43CEE6002B00D12C
:10122000CBE661186E1EA14200D2A4E0814200D23A
:10123000C9E000D1D9E03500EDE701256D4201217B
:10124000891A382900DD4CE61F2900DC7FE01F23C6
:101250005B429A1A4346D340202904D04446654A4B
:101260005A44944025436A1E954107222B4315009A
:1012700000241D401A4200D1A1E00F2200241A4090
:10128000042A00D198E01A1D9A429B415B42E4185F
:101290001300220200D48FE001230024002523E65E
:1012A000B54200D364E743465A1E009B9C46654402
:1012B0001F009D429B415B421B19C9188C423AD2C8
:1012C000884263D860D0904652E7AA4200D9EAE645
:1012D0004346DE0758086B081E43ED07EAE648461A
:1012E00001F0DEF801000200153120321C2900DC7B
:1012F0001AE64B46083883400025984620E601F060
:10130000CFF803001A00153220301C2A00DC30E62A
:101310005446083B00229C4035E60F232B40042B0B
:1013200000D152E605235B42AB429B4104355B4250
:10133000ED0898444AE68C42C5D1AF42C0D99046E8
:1013400016E78A4200D8EAE6831E0919E7E62A4A28
:1013500028005A44434695409340C8406A1E954130
:10136000444603432B43CC405A0792D00F221A40E5
:10137000042A88D18DE73500814200D04BE7009ADE
:10138000934200D047E718E6AE429CD902235B4265
:101390009C46009BE0449C4665449D429B415B42C9
:1013A0001B19C918E4E6154A5A44002A00DC44E730
:1013B00001230025984409E665076402240BDB0835
:1013C0001D43002390E5009E023D7200B242BF41E2
:1013D0007F423C1909190092CEE78024434624033A
:1013E0001C432403064B240B7EE5009A9A42EAD361
:1013F0003500C4E73E0400001E040000FF030000A7
:10140000FF070000F0B54F464646D6469446914643
:101410001A03120B184DC0B54C000F0392465A0028
:10142000060080463F0B0120640DC90F520DDB0FF3
:10143000AC420AD0AA4203D0944201D157450DD004
:10144000E0BCBA46B146A846F0BD3D003543F7D1F1
:10145000A242F5D1524665462A43F1D10120C84542
:10146000EED1994206D0002CEAD13E433000461E10
:10147000B041E5E70020E3E7FF070000F0B54E4686
:1014800045465746DE4604001800E0B516001B032B
:101490001B0B324D0F034A0099464300A446B04649
:1014A0003F0B520DC90F5B0DC00FAA4229D0AB42B2
:1014B00018D0002A2AD13C43A34665426541002B3F
:1014C00002D14C46264327D0002D15D1814228D089
:1014D0000220013908400138F0BCBB46B246A9469B
:1014E000A046F0BD4D462E432FD1002AEED13C43FD
:1014F00065426541002DE9D00028EDD10120404230
:10150000EAE73D00254320D19342EBD0002BDDD10B
:101510004C462643DAD1DBE75B460020002BDBD0CC
:10152000D6E79A420ADCE7DB4F45D1D810D000203D
:101530004F45D1D20029E1D00800CDE743425841C0
:101540000223404218400138C6E702204042C3E768
:10155000C445BDD80020C445BED2EBE7FF0700005C
:10156000F0B54E4645465746DE4604001800E0B545
:1015700016001B031B0B314D0F034A009946430015
:10158000A446B0463F0B520DC90F5B0DC00FAA42D7
:1015900011D0AB4214D0002A2FD13C43A346654260
:1015A0006541002B14D14C46264311D15B460020E7
:1015B000002B17D010E03D00254312D193421CD1DF
:1015C0004D462E430DD1002A04D13C43654265416E
:1015D000002D0DD1814216D002200139084001387A
:1015E00000E00220F0BCBB46B246A946A046F0BDD2
:1015F0000028F7D101204042F4E7002BEAD14C4605
:101600002643E7D1E8E79A4206DD434258410223E8
:10161000404218400138E5E79A42E9DB4F45DBD804
:1016200006D000204F45DDD20029E3D00800D9E7DD
:10163000C445D1D80020C445D4D2F5E7FF07000047
:10164000F0B557464E464546DE46E0B598460C0393
:101650004B000600924687B0240B5B0DCF0F002B8A
:101660006CD0DD4A934200D186E0420FE40014437F
:10167000802212041443D94AC5009446634400935F
:10168000002399469B46434642461E03D20F5B0009
:1016900050469046360B5B0D00D178E0CE4A93421F
:1016A0001DD0CE49420F8C4600996344F6008C460B
:1016B000164380229C44120463461643C200002055
:1016C00000930099434601318C4649467B40019383
:1016D0000F2900D97EE0C24B890059588F465246E7
:1016E000009B324300D056E1BB4900268C46634440
:1016F000494600930223194389460220E1E7434605
:1017000001933400150083465B46022B5ED0032B09
:1017100000D1F3E1012B00D018E1002200240025C4
:10172000019B12052243DB071A432800110007B072
:10173000F0BCBB46B246A946A046F0BD2500054315
:1017400000D141E1002C00D1ADE1200000F0A8FE65
:10175000010002000B391D2310005B1A3100350017
:1017600008388440D94085400C439E48831A009332
:10177000002399469B4686E70500254300D01CE1DF
:10178000082200930223002491469B467BE75246A1
:10179000324300D10AE1002E00D176E1300000F0A2
:1017A0007FFE02000B3A1D2301009B1A52460839A6
:1017B000DA408E40164352468A40009B8949181AE7
:1017C00003008C466344002000937AE70024002540
:1017D000814AA5E72F0C2D042D0C2B00110C1204AF
:1017E000120C53439846130028007B439946484304
:1017F0004844834640460B00000C824658467B43D3
:1018000050440293814506D99A4680235B0299464B
:10181000CA4453460293030C9B4643461B040004F0
:101820001B0C9846030043440493330C99462B0049
:101830003604360C7343984633007B439A464B4636
:101840005D435F4343465544180C4019824503D914
:1018500080235B029A465744050CEB1905934346D7
:101860001D042D0C00044019250C2404240C270011
:1018700057436A4390462A003B0C9A464A436143C9
:10188000414451448344884503D980235B029846F0
:1018900042443F040B0C3F0C0904C9192700984629
:1018A0004B4677435C436E435D433B0C9946A4191A
:1018B0004C4442440395A64204D980235B029846D7
:1018C00045440395029B3F045B441E0083428041D4
:1018D00023049846059B3F0C4744984676188E4251
:1018E0008941474440423D18A846934649428A46AA
:1018F000C3449F42BF4180458041039BDA449846E0
:10190000534640427F420743240C934592418A4507
:1019100089413F19DC0D049B75021D43681E8541FA
:101920005346524249420A43BF184744F60D7F02CC
:1019300035435A023C431543FB0100D4C1E0012169
:101940006A080D401543E2071543640826496144BF
:10195000002956DD6B0709D00F222A40042A05D042
:101960002A1DAA42AD416D4264191500E30104D558
:1019700080211E4AC900144061441D4A914200DD85
:1019800024E76207ED08640249051543240B4A0D5C
:10199000C6E60197B8E6104A0320944663444A46D7
:1019A000009303231A43914652468AE6494601238F
:1019B000194389460026012083E60C220093032365
:1019C000050091469B465EE604239946002300935A
:1019D000013300249B4656E6FF07000001FCFFFF91
:1019E000C8AC00080DFCFFFFFF030000FFFFFFFE77
:1019F000FE070000002380240025444A01932403AD
:101A00008EE60120401A382800DD86E61F285BDDBF
:101A10001F2223005242511ACB401900202803D024
:101A20003B4A6244944025436A1E95412A000A437A
:101A300007210D000024154011425BD00F21002426
:101A40001140042953D0111D914292415242A418D1
:101A50000A0023024BD501220024002560E68023E2
:101A60001B031C4209D01E4207D133431C034346CB
:101A70001500240B254A019352E6802212031443D9
:101A80002403224A240B01974AE600F009FD0300D3
:101A90001A00153220301C2A00DC84E65646083B2A
:101AA00000229E4089E600F0FBFC01000200153197
:101AB00020321C2900DC4EE6340008380025844022
:101AC00053E6009B9C4641E71249220061442E00E8
:101AD0008D408A40C640691E8D4132432A43C4402E
:101AE0005307B6D00F2111400429ACD1B1E76507E7
:101AF0006402240BD2081543002211E6802212034F
:101B000014432403014A240B0AE6C046FF070000E1
:101B10003E0400001E040000F8B557464E464546F8
:101B2000DE460400E0B51F0010000B03620F4E00FC
:101B3000CD0F5B0A39031343490AE200440F2143E6
:101B4000C24C91469246C0007A008046760D520DF6
:101B5000FF0FA24200D1B4E001246740BB46BD4262
:101B600000D188E0B41AA446002C00DCB2E0002AC0
:101B700000D1C5E0B54A964200D18BE28022120422
:101B800011436246382A00DDA1E11F2A00DD16E27A
:101B900020270C00BF1ABC400200A0466446B84093
:101BA000E240444614430200501E82416046C14058
:101BB00022435B1A49468C1AA145924152429B1A14
:101BC000984643461B0200D417E143465B025B0A7A
:101BD00098464346002B00D16CE1404600F060FC83
:101BE0000200083A202120004346891A9340C84049
:101BF00094400343964200DD57E1961B711C1F2958
:101C000000DDCBE1202218002600521A94409040BB
:101C1000CE40CB40621E9441304398460026044398
:101C2000630709D00F232340042B05D0231DA342B3
:101C3000A4416442A0441C0043461B0200D4DFE0E0
:101C4000824B01369E4200D1FBE04246804BE408C5
:101C50001A401300710552075B0222431B0B490D0A
:101C60000905ED07194329431000F0BCBB46B246F5
:101C7000A946A046F8BDB41AA446002C58DD002A97
:101C800000D19EE0714A964200D13BE180221204CD
:101C900011436246382A00DDC1E01F2A00DCBBE1A7
:101CA0000C00203AD44022006446202C04D0402767
:101CB0003F1BB940084380464446611E8C41144393
:101CC000B1E00C0004432AD0BB46BD422DD0614C8C
:101CD000A446B4446446002C5CD0941BA446002E59
:101CE00000D015E14D461D4300D1C3E1651E012C16
:101CF00000D10CE2554EB44200D1F8E1AC460EE101
:101D00000A00024300D136E12200013A012C00D141
:101D1000C6E14E4CA44500D1F4E0944631E70124DD
:101D20006740BB46BD4200D01CE74A4CA446B444C1
:101D30006446002C00D1CFE0941BA446002E00D1B5
:101D40005CE1424EB24200D1ECE1802636043343DE
:101D50006446382C00DDB3E11F2C00DD38E220267C
:101D6000361B1C00B4404F46A0466446E74044463C
:101D70003C434F46B7403E00771EBE413443664663
:101D8000F340C918241884429B415B4298461600D0
:101D900088444EE0304A741C144200D0D6E04A46D3
:101DA0001A43002E00D05BE1002A00D1A5E10A0011
:101DB000024300D0BBE14A465907D2080A43DB0878
:101DC00027E00A00024300D174E12200013A012C0D
:101DD00005D01E4CA44500D194E0944659E74844F0
:101DE000484592415B18984604005242904443464D
:101DF00002261B0200D5C4E0013E630700D011E7B4
:101E00004346B4465907E2080A43DB080F498C45AC
:101E100040D061461B0349051B0B490D20E70143D8
:101E20000C00611E8C414C444C45924152429046FC
:101E3000984443461B02E0D5044B01369E4200D035
:101E40009FE03100002300220AE7C046FF070000A0
:101E5000FFFF7FFF01F8FFFFFE070000002A00D10F
:101E600060E10A0002434DD04A465C07D208224393
:101E70008024DB082403234207D0CE08264204D165
:101E80005D463300C20849070A43510FD200D20809
:101E900049070A431100194300D1C8E18021090311
:101EA0000B431B03D5491B0BDAE6D549B61A0B4089
:101EB0009846B5E6200000F0F3FA020018321F2A17
:101EC00000DC8FE6230008388340002492E60843B4
:101ED0000200501E82416DE6CA4C721C224200D0A4
:101EE000ADE04A461A43002EB8D1002A00D158E18D
:101EF0000A00024300D059E14A465907D2080A4372
:101F0000DB0886E74A465907D2080A43DB08C1E7DF
:101F1000BA4DAA4200D11EE180252D042B43644610
:101F2000382C5DDC1F2C00DDD0E0202567462D1B02
:101F30004E461C00FE40AC4034434E46AE40350099
:101F4000FB406E1EB541C91A2C434EE04A46141A96
:101F5000A1459241524290465F1A3A004746D21B31
:101F60009046120200D58BE04246224300D030E674
:101F7000002300254DE74A465907D2080A43DB08EB
:101F800044E742469E4B61081A4013000122144068
:101F90000C43DA075B089846144341E61A001F3EDB
:101FA000F2401600202903D04022511A8B401C43D6
:101FB000621E944100233443984600261DE70C001E
:101FC000203AD44022006446202C04D040273F1BF6
:101FD000B940084380464446611E8C412243E9E5EE
:101FE0004C4623431C00631E9C41041BA0429B41A2
:101FF0005B42CB1A98465D461600E2E54E461E430C
:1020000000D1AEE0661E012C00D1FDE07B4FBC424A
:1020100000D107E1B4469BE664462022121B0C0067
:10202000944007009040A0466446421E904162469C
:10203000E7404446D1403C4304435B18F3E66F4C11
:10204000A24200D1D5E048445B1848458941494245
:102050005B18DC0740085B08984616000443CCE692
:10206000002A00D082E00A00024340D180230025EC
:102070001B0313E74B07C2081A435D46CB08C5E6AE
:102080004A46841AA0429241CB1A52429B1A984661
:102090005D469EE54A465907D2080A43DB08F9E641
:1020A0004A46141AA14592415B1A52429B1A98461D
:1020B000012686E54A465907D2080A43DB08A5E609
:1020C0004C4623431C00631E9C415BE665461E0094
:1020D000203DEE40202C05D040252D1BAB404C462A
:1020E0001C43A2465446631E9C4134437DE74B0784
:1020F000C2081A435D46CB08CCE60A00024300D171
:1021000036E74B07C2081A435D46CB0881E64A46CC
:10211000841AA0429241CB1A52429B1A98465D46BD
:1021200001264EE54B07C2081A43CB08B2E64A46E1
:10213000141AA14592415F1A5242BA1A90461202ED
:102140006BD54A46841AA0429241CB1A52429B1A3E
:1021500098465D4664E54B07C2081A435D46CB08C6
:1021600098E64B07C2081A43CB084FE60A00024321
:1021700090D04A465C07D20814438022DB08120341
:10218000134208D0CE08164205D1C00849070843BB
:1021900004005D463300610FE2004907D2080A439C
:1021A00078E64B07C2081A43CB0832E648445B186E
:1021B00048459241984652429044434604001B02CF
:1021C00000D41AE642460E4B01261A40904614E609
:1021D00066461F00203EF740202C05D04026361BC7
:1021E000B3404C461C43A2465446631E9C413C43AC
:1021F000C8E511000023002232E5C046FF070000B9
:10220000FFFF7FFFFE0700004A46141884429241F8
:102210005B18984652429044E9E54246224300D179
:10222000A6E6EAE54B07C2081A43CB0832E60022CD
:102230000149130014E5C046FF07000070B5050012
:102240000C480C03160049001A035B00240B490DCF
:10225000120B5B0D814208D0064900208B4203D14E
:1022600032431000421E904170BD01202C43FBD12F
:10227000F2E7C046FF0700000A0030B5134C5300D8
:1022800009030500090B00205B0DD20FA34204DDFA
:102290000F48834202DD0F4BD01830BD8020400331
:1022A00001430D48C01A1F2808DD0C48C31AD94045
:1022B0000B005842002AF0D11800EEE7084CC54048
:1022C000A446634499400B002B43F2E7FE03000051
:1022D0001D040000FFFFFF7F330400001304000013
:1022E000EDFBFFFF70B5002816D0C317C5185D4081
:1022F000C40F280000F0D4F8114A121A0A2816DC7C
:1023000003002E0015339E400B23181AC5405305B9
:102310002D032D0B5B0D03E0002400230025002678
:102320001B052B43E40723433000190070BD0B3815
:10233000854053052D0300262D0B5B0DF0E7C046AD
:102340001E04000010B5041E10D000F0A9F80F4BB9
:102350001B1A0A2811DC0B222100121AD140153059
:102360000A035B058440120B5B0D01E00023002291
:102370001B0513432000190010BD22000B388240BA
:102380005B0512030024120B5B0DF1E71E04000035
:1023900002004B00F0B508035B0D3D4ECC0F400A28
:1023A000510F5F1C0843D50037420AD039495E18E7
:1023B000FE2E16DDFF230021DB050B43E00718434B
:1023C000F0BD002B06D1284327D005218901490AF9
:1023D000DBB2F1E70543EDD08021C903FF230143C0
:1023E000EAE7002E1CDD920111004A1E9141C00057
:1023F0006D0F014329434B0748D00F230B40042B9B
:1024000000D004318023DB040B403FD0721CFE2E31
:10241000D0D08901490AD3B2CEE700230021CBE70F
:102420003200173222DB80211E2209040843921B4E
:102430001F2A1DDD022149428E1B0100F1400E00C2
:10244000202A04D0144A9446634498400543290046
:102450004D1EA941314300264B07CED180200B00F1
:10246000C004012203400142D3D1AFE70023ACE70F
:102470000A498C4629006344D1409D400A00290046
:1024800098404D1EA94101431143E4E733009DE705
:10249000FE07000080FCFFFFA2FCFFFF82FCFFFFA5
:1024A0001C2101231B04984201D3000C10391B0A84
:1024B000984201D3000A08391B09984201D3000948
:1024C000043902A2105C40187047C046040302029F
:1024D00001010101000000000000000010B500290A
:1024E00003D1FFF7DDFF203002E0081CFFF7D8FF23
:1024F00010BDC046FA210A4B10B5890004001868C7
:10250000FDF71EFE00F0DEFB0123002801D01800BD
:1025100010BD00222100013800F098FB0023F6E7EF
:10252000100000204021084A10B5136800200B431A
:102530001360FFF7DFFF041E02D00124200010BD4E
:1025400003F094FBFAE7C04600200240024A1368F9
:10255000013313607047C04610020020014B186819
:102560007047C0461002002070B50400FFF7F6FF68
:10257000631C5A1E93410500E418FFF7EFFF401B50
:10258000A042FAD370BDC0460321026870B59368BB
:1025900004000B40012B01D0002070BD10680342E5
:1025A000FAD0052095682840012808D01021626DD6
:1025B00001200A436265A26D1343A365EDE79368AA
:1025C0000130034393601160FFF7C8FF0126050047
:1025D00004E0FFF7C3FF401B0A2804D823689B6868
:1025E0001E42F6D1D8E71022636D012013436365C4
:1025F000A36D1E43A665D0E7032370B502680400EF
:10260000916882B00B40012B27D09168204B194272
:102610002AD1012193680B4393601E4B1E49186811
:10262000FDF78EFD0190019B002B05D0019B013B26
:102630000193019B002BF9D1FFF790FF01260500C4
:1026400004E0FFF78BFF401B0A2817D823681B689C
:102650001E42F6D0002002B070BD11680B42F9D1C5
:1026600091680B4B1942D4D01022636D01201343A3
:102670006365A36D0F3A1343A365ECE71022636D06
:10268000012013436365A36D1E43A665E3E7C046BF
:10269000170000801000002040420F0070B5041E9B
:1026A00000D1AAE0436D002B00D19CE0636DDB06F6
:1026B0002BD40421080023689A681040114224D1C9
:1026C000616D614A11400632FF32114361659968BC
:1026D00001320A40012A00D191E080256168ED05B0
:1026E0004A005208AA4219D080221206914215D0FF
:1026F0001A69564E920092081A61554A156835407B
:1027000015601568294311600FE01022636D0120E8
:102710001343636500225023E25470BD1A6992008E
:1027200092081A611A69114319611821DA688A43FB
:10273000DA60DA68A1680A43DA60454A454D1168F3
:1027400029401160616B1568490629431160802298
:102750009968520511424CD0DA683F490A40216914
:10276000DA60DD68E268022900D104202021266BAE
:10277000615C32432A43A569AD032A43E569ED0351
:102780002A434D032A432C25655D6D002A430243ED
:10279000C220DA60626AFF30824204D0A56AD8683B
:1027A0002A430243DA602122A25C012A3BD0E16B7A
:1027B000012928D0012219690A4202D019699143DE
:1027C000196107215A6900208A435A615A69A16B2D
:1027D0000A435A6100230322A365636D9343023ABF
:1027E0001343636599E750228365835402F062FEC8
:1027F0005CE799680A439A60AEE701208DE71968A3
:102800000A429AD169E71A691448656C02401A6154
:10281000226C18692A43A56C2A4302431A611A697B
:1028200011431961CDE7002905D18022D9685202F0
:102830000A43DA60BBE72020616D01436165A16D49
:102840000A43A265B3E7C046FDFEFFFFFFFFC3FFDB
:1028500008270140FFFFFFFD1902FEFF03FCFFFFF9
:10286000036810B59A680400520721D45022815C95
:1028700001291DD001218154C269012A12D1626D42
:102880000C4900201140802252000A436265502109
:102890000022A26562541C321A609A684C390A43BD
:1028A0009A6010BDFFF7A8FE0028FAD12368E6E77A
:1028B0000220F6E7FEF0FFFF502370B5C25C040073
:1028C000012A20D00122C2540368033299680A42C7
:1028D00010D099680A4220D1FFF740FE0426050077
:1028E00004E0FFF73BFE401B0A281ED823689B68C4
:1028F0001E42F6D12000FFF747FE002805D05023E6
:102900000022E25470BD0220FCE7636D0C4A1340C4
:102910000432FF3213436365F1E79A689207DBD410
:1029200010219A680A439A60D6E71022636D01204D
:1029300013436365A36D0F3A1343A365DFE7C046F6
:10294000FEFEFFFF036870B50D00996804001600D5
:102950004A0736D45022815C012932D001218154AA
:10296000C269012A04D0FFF747FE002828D1236856
:10297000626D15491140802252000A436265502160
:102980000022A2656254E06C104A4039C262104ACB
:102990000263104A42631C221A605A680A435A6052
:1029A000DA680F390A43DA60403319002A0033002D
:1029B00000F0E8F904210020226893680B4393603B
:1029C00070BD0220FCE7C046FEF0FFFFE1290008D1
:1029D000592A00086D2A00080368186C7047C04621
:1029E0005021836A10B55A6D11420ED18022596D63
:1029F00092000A43C0215A651A680901D06808424A
:102A000007D0180003F058F810BDDB6C5B6B9847DB
:102A1000FAE72021585C0028F3D110680007F0D5B0
:102A2000906840070BD40C205168814351605A6D67
:102A300007490A400431FF310A435A65E1E75A6DFC
:102A40001143596501219A6D0A439A65D9E7C04639
:102A5000FEFEFFFF7047C04610B5806AFFF7FAFF21
:102A600010BDC0467047C0467047C0464022806ACD
:102A700010B5436D13434365836D3C3A134383653F
:102A8000FFF7F2FF10BDC0460422036870B5196855
:102A900004000A424ED059680A424BD0626DD206F9
:102AA00004D48022616D92000A436265C022D96815
:102AB0001201114214D12022A15C002910D1196801
:102AC00009070DD59968490749D40C215A688A43EA
:102AD0005A60636D264A13400432FF321343636524
:102AE000200002F0E9FFA369012B36D00C222368F5
:102AF0001A6080251A68154202D05A68154221D101
:102B0000102219680A4214D059680A4211D0226B67
:102B1000002A02D0DA68D20709D50221A26D20006E
:102B20000A43A26510221A60FFF79EFF2368102255
:102B30001A6070BD082219680A42DAD059680A4240
:102B4000D7D0ABE78023626D5B021343636520003F
:102B5000FFF788FF23681D60D2E72368C9E7636D2C
:102B60001A4362650122A36D1343A365B8E7C0460B
:102B7000FEFEFFFF502330B5C25C040083B0012A83
:102B800055D00122C2540268906840072BD4294BCB
:102B9000486898422FD00D68906A6B035B0B034323
:102BA00093626B0317D58023234A1B0411680B43E0
:102BB0001360224B22491868FDF7C2FA83001B18E4
:102BC0005B000193019B002B05D0019B013B01930E
:102BD000019B002BF9D1AB0322D45023002200200B
:102BE000E25403B030BD2021626D01200A436265CA
:102BF0000022E254F5E70B68906A5903490B8843B9
:102C000090625A0304D50C490E480A6802400A60D3
:102C10009B03E2D5084A0C4913680B401360DCE7BC
:102C20008023054ADB0311680B431360D5E70220BC
:102C3000D7E7C0460110000008270140100000201F
:102C400040420F00FFFF7FFFFFFFBFFF70B500286E
:102C500014DB154B03229C46FF23840810401A0006
:102C6000C026C000890182400B408340A400644418
:102C7000B600A55995432B43A35170BD0B4A0324BD
:102C800094460F23FF22034020401400C000890116
:102C900084400A408240083B9B089B006344DD69F6
:102CA000A5432A43DA61E8E700E100E000ED00E037
:102CB0001F2318401E3B8340014A13607047C046E3
:102CC00000E100E08022431E5204012093420ED214
:102CD000C021074A07485360036A09061B021B0A02
:102CE0000B43036200230020936007331360704797
:102CF00010E000E000ED00E070B5041E38D005687B
:102D00001C4B1421E818FDF71BFA1B4B022223640D
:102D1000252380006064E2542B68184AA1681A4099
:102D2000E36826690B43334366693343A66933433B
:102D3000E6693343266A334313432B608023DB0168
:102D400099420CD01C2318400D3B83400C4A11685B
:102D5000994311606368116883400B43136000233B
:102D6000252201210020E363A154013AA35470BD40
:102D70000120FCE7F8FFFDBF000002400F80FFFFCD
:102D8000A8000240F0B52424055D83B0012D3CD09D
:102D9000012525270555C55DEEB2012D04D0002380
:102DA0000355022003B0F0BD223CC4550024C46387
:102DB0000468093F2568B5432560056C0195456C9D
:102DC0002F40BE40019D6E6063608368102B0ED063
:102DD000036BA160E260002B0ED00E222368134328
:102DE000236001222368002013432360DAE7036B8A
:102DF000A260E160002BF0D104222368934323609A
:102E00002368063213432360EBE70220CAE7C0467B
:102E1000252370B5C25C022A03D0213BC363012085
:102E200070BD0E240268456C1168A1431160012138
:102E300014688C4314601C222A400D009540046CD9
:102E400000226560C1542423C254836B002B02D03E
:102E500098470020E4E70020E2E7C046F8B51C23CD
:102E6000446C056C2340042426009E402A680168B7
:102E70000F6832420DD03C420BD00B689B0602D447
:102E80000B68A3430B60036B6E60002B00D0984768
:102E9000F8BD022426009E40324214D03C4212D09B
:102EA0000B689B0606D40A220B6893430B6025230C
:102EB000093AC254242300226E60C254C36A002B14
:102EC000E6D09847E4E7082426009E403242DFD04F
:102ED0003C42DDD00A680634A2430A600122110098
:102EE000994025236960C263C2540022013BC25449
:102EF000436B002BCCD09847CAE7C046F0B5454697
:102F0000DE4657464E46E0B50D68002383B0002DDF
:102F100000D17FE0012291466F4A009190464A46D7
:102F20002E009A401640019615426FD00099102647
:102F300049680C00B443022C00D172E0013C012C22
:102F400000D888E003245A0094409446E443026881
:102F500066462240924603220A40B2405646324319
:102F600066460260C2681440009A9268B2401443F8
:102F700080225205C460114248D04E46574C626BC5
:102F8000324362630326564C9A08A4461E40B6009C
:102F900092006244B4460F266746BE409468B4432C
:102FA000A026F605B04215D04E4EB04200D18FE0BB
:102FB0004D4EB2460226504509D04C4EB04200D18B
:102FC00082E04B4EB2460526504500D006266746A5
:102FD000BE40344394604246019C1268E443CE03F1
:102FE0005AD446462240326072688E035BD446460D
:102FF00022407260B268CE025CD446462240B26083
:10300000F26889025DD422404146CA602A00013339
:10301000DA4084D103B0F0BCBB46B246A946A04614
:10302000F0BDDC08A4000419266AB24607261E403B
:10303000B600B4460F266746BE40B34656465F46C6
:10304000BE436746B246009E3669BE40B446564609
:1030500067463E4326628468A2465C00A446032479
:103060006646B440A34656465F46BE436746B346EF
:10307000009EE443F668BE40B2465E4657463E4375
:10308000866046689643B2464E460A0932409A40E8
:103090005646324342605AE7019E3243464632600A
:1030A00072688E03A3D5019E324346467260B268B1
:1030B000CE02A2D5019E32434646B260F268890232
:1030C000A1D501990A439FE70326BE40344381E717
:1030D0004E46BE4034437DE70004014000100240EC
:1030E000000001400004005000080050000C005097
:1030F000001C0050002A01D0816170478162FCE70A
:10310000044B10B55A69104200D110BD586102F04D
:1031100087FCFAE7000401401023F0B5C64604001E
:103120000D0016000227984600B523686A1C31D1AD
:10313000022110209A6911422AD19A691042F9D0CD
:1031400020219A691142FCD01022DA611032DA6132
:103150009A69920701D500229A62012299690A426E
:1031600002D199690A439A615A681B490A405A6018
:103170000422636C1343636441231C32E254002332
:1031800001202232A354023AA35480BCB846F0BDB9
:103190000020FAE79A691742FAD141469A6911422A
:1031A0000DD0202707E0FFF7D9F9801B85420DD30A
:1031B000002D0BD0236899690F42F4D0C4E7FFF7C4
:1031C000CDF9801BA84201D8002DAED12022636C1E
:1031D000134363644123D1E700E800FEF0B5C6461F
:1031E00004000D00160000B500294CD01023202744
:1031F000984623689A69174254D141469A69114208
:103200002AD020276A1C32D120219A691142FCD091
:103210001022DA611032DA619A69920701D5002230
:103220009A62012299690A4202D199690A439A6114
:103230005A681D490A405A600422636C1343636450
:1032400041231C32E254002301202232A354023ACB
:10325000A35480BCB846F0BDFFF780F9801B8542BF
:10326000C7D22022636C134363644123EAE79A695F
:103270001742CDD1FFF772F9801B8542F1D3002DA3
:10328000EFD02368BEE703689A6992060AD49A6968
:10329000D206B6D4FFF762F92022636C134363644D
:1032A0004123CFE70020D4E700E800FE10B5041E5C
:1032B0004DD04123C35CDAB2002B43D041232422FA
:1032C0000121E25423681A688A431A606168214A1E
:1032D0000A401A619A6820490A409A60E268012A05
:1032E0002AD08421A068090201439960022A02D1F0
:1032F000802212015A605968184A00200A435A6015
:10330000DA6815490A40DA60616922690A43A169ED
:1033100009020A43DA60216AE2690A4301211A605C
:103320001A680A431A60002341221F316364A154C2
:1033300001322363A35410BD8022A16812020A4304
:103340009A60D8E74033C25402F048FAB6E7012049
:10335000F1E7C046FFFFFFF0FF7FFFFF00800002A4
:10336000F8B54546DE4657464E46E0B598460AABA8
:10337000914604CB04001B880D009B464123C35C8F
:103380009246202B00D0A0E0002A00D193E05B46BB
:10339000002B00D18FE04023C25C012A00D194E0D1
:1033A0000122C254FFF7DAF8802706003F0205E049
:1033B000FFF7D4F8801B192800D988E022689369A8
:1033C000190039403B42F3D141232120E05401331D
:1033D0001F30E054534663625B4661646385536803
:1033E00061637349AD050B404146C9B209040B4303
:1033F000AD0D70492B430B435360200032000C99F4
:10340000FFF78AFE002800D091E04346012B00D050
:1034100081E04B462168DFB28F6280270C9B01332D
:1034200062D180228B691A42FCD0638DFF2B68D851
:10343000638D61484A689BB223850240DBB22A4310
:103440001B0413438022920413434B605A4B802782
:10345000984603E0638D002B00D189E03200200004
:103460000C99FFF759FE00283CD1636A226819784D
:10347000013391626362638D013B9BB26385238D4F
:10348000618D013B9BB223850029E3D0002BE1D164
:103490000C9B013350D193691F42FCD0638DFF2BED
:1034A00057D9FF234146238553680B4043492B439B
:1034B0000B435360CEE7802301209B006364F0BC84
:1034C000BB46B246A946A046F8BD0220F7E7202237
:1034D000636C134363644123E25400232232A354F8
:1034E000023AA3540120EAE78B691F429DD1FFF7FE
:1034F00035F80C9B801B83424FD3002B4DD02168A5
:103500008CE7FF232C4A23854B6813402B4A2B431F
:1035100013434B609AE74A462368120A9A622000D6
:1035200032000C99FFF7F8FD002800D171E7402325
:1035300000220120E254C2E793691F42AED1FFF797
:103540000DF80C9B801B8342C1D3002BBFD0226897
:103550009EE74046638D51689BB223850140DBB2F4
:1035600029431B040B43802189040B43536071E7FB
:10357000320020000C99FFF731FE0028B2D1202143
:1035800023680F4DD9615A682A405A604123E1549B
:103590000133E054023BE05491E72022636C134373
:1035A00063644123E25400220133E254BFE7C04682
:1035B000009800FC00200081009C00FC0000FF013E
:1035C00000E800FEF0B54546DE4657464E46E0B5FB
:1035D00083B098460CAB019204CB04001B8889464B
:1035E0009B464123C35C92460E9D202B00D0A5E054
:1035F000002A00D197E05B46002B00D193E04023E6
:10360000C25C012A00D199E00122C254FEF7A6FF54
:1036100080260700360204E0FEF7A0FFC01B192831
:1036200074D822689369190031403342F4D14123A0
:103630002220E05401331E30E0545346616461633C
:10364000494663625B468E056385B10D53688946C2
:103650007A4920000B404146C9B209040B43494650
:103660000B4377490B43536029003A00FFF754FDA1
:10367000002800D0CCE04346012B00D07EE06A4613
:10368000236812799A6240266A1C00D0AAE0402181
:103690009A691142FCD0628DFF2A00D8BDE0FF225A
:1036A000664922855A680A4049460A4365490A43E1
:1036B0005A600422802690466A1C1CD141469A69B1
:1036C0001142FBD05B6A626A1370628D636A013AD1
:1036D000013392B26362238D6285013B628D9BB29E
:1036E0002385002A01D0002B34D0638D002B54D0C9
:1036F00023686A1CE2D041469A691142E2D1FEF782
:103700002DFFC01B854201D3002DF1D12022636C17
:103710000120134363644123E25400232232A35463
:10372000023AA35403E0802301209B00636403B0AA
:10373000F0BCBB46B246A946A046F0BD0220F6E763
:1037400093691E420CD1FEF709FFC01B8542DDD3F1
:10375000002DDBD022686B1CF2D193691E42FCD095
:10376000638DFF2B2ED9FF233749238553680B40E8
:1037700049460B4335490B435360B6E7019E236826
:10378000320A9A6229003A002000FFF7C5FC00289F
:103790003ED12368F2B29A6275E73A002900200010
:1037A000FFF71CFD002847D120212368284DD9614F
:1037B0005A682A405A604123E1540133E054023BE5
:1037C000E054B4E7638D204851689BB201404846FD
:1037D0002385DBB201431B040B43802189040B4387
:1037E000536082E79A69164200D054E7FEF7B6FEAE
:1037F000C01B854203D3002D01D0236844E720225B
:10380000636C134363644123E25400220133E254A6
:10381000402300220120E25489E7628D074859685D
:1038200092B2014048462285D2B2014312040A43B3
:1038300008490A435A603CE7012078E7009800FCF9
:10384000002000800024FF81009C00FC0000FF019C
:1038500000E800FE00240082F0B557464546DE46EB
:103860004E46E0B51D0000239246412283B00193ED
:10387000835C0400202B57D1036880209E690002DE
:103880003700074006424FD14020265C012E4BD026
:103890000126890526541C38A0548A0D9146A02281
:1038A0004946920111438B466764E268012A63D05E
:1038B0005A4692B25A60FEF751FE20222368060053
:1038C000996998690A40102101400A4309D16A1C8C
:1038D0003ED11027202099699A6901403A400A4355
:1038E000F9D09A692027D20600D472E06A1C23D14D
:1038F00020219A691142FCD01022DA611032DA617B
:10390000019A52453FD0019A01320192019A5245E3
:10391000CBD320224123E254636C01201343636420
:1039200000224023E25400E0022003B0F0BCBB467A
:10393000B246A946A046F0BD9A691742DCD1FEF70F
:103940000DFE801B854253D3002D51D02368CDE757
:10395000002D15D020231027984607E04046236805
:103960009A699969024039400A43BAD1FEF7F6FDD7
:10397000801B8542F2D2CCE74946244A0A4399E7A4
:10398000FEF7ECFDC5E7802220275968D2010A43E3
:103990005A606A1C06D120219A691142FCD020226B
:1039A000DA61B0E79A691742F9D1FEF7D7FD801BBB
:1039B00085421DD3002D1BD02368EAE79A69174280
:1039C0000DD1FEF7CBFD801B854211D3002D0FD00A
:1039D00023686A1CF2D120219A691142FCD020226E
:1039E000DA614123E2540022013B0020E2549CE7CB
:1039F0002022636C0120134363644123E2540023BB
:103A00002232A354023AA3548FE7C046002000029A
:103A1000F0B54125435D0A00DEB2202B1BD14027C3
:103A2000C35D012B17D0012124238C464355036825
:103A30001C688C431C601C6808490C401C60196899
:103A40001143196061461A680A431A6000234655FB
:103A5000C3550020F0BD0220FCE7C046FFEFFFFF8A
:103A6000F0B54125435DDEB2202B1AD14027C35D5E
:103A7000012B16D024234355233B9C46046809029E
:103A800022689A4322602268074B1A40114362461B
:103A9000216023681343236000234655C35500204B
:103AA000F0BD0220FCE7C046FFF0FFFF0C23244AD4
:103AB00010B5D1680B40082B0BD00C2B14D0042B65
:103AC00009D08020536800021B045B0F013398402B
:103AD00010BD1C48FCE710681B4BC006C0171840FF
:103AE000184B9C466044F3E78B0218481B0FC45CDC
:103AF0000902D368890F0131DB030CD41368DB069C
:103B000013D563011B1B9801C01AC00000190002E5
:103B1000FCF716FBDCE76001001B8301181AC000EC
:103B200000198002FCF70CFBD2E763011B1B980114
:103B3000C01AC00000198002FCF702FBC8E7C046AB
:103B4000001002400024F40000E548FFDCAE00084D
:103B5000F0B5D6464F464646C0B5040082B00028B0
:103B600000D146E1C84B0C25DA68DE6880235B0291
:103B70001E4003681540DA0733D5082D00D12FE128
:103B80000C2D00D129E1802061684002814200D1E2
:103B900060E1A022D202914200D142E2BA4FBB4B77
:103BA0003A681A403A603B68B94A03400193019B66
:103BB0003B6813403B60002900D04FE1FEF7CEFC8C
:103BC00080239B028046994606E0FEF7C7FC4346E9
:103BD000C01A642800D9C9E14A463B681342F4D1AF
:103BE00023689A0727D5E368042D00D169E10C2DDD
:103BF00000D163E1A44E002B00D1CEE1092132684F
:103C00008A4313433360FEF7A9FC04230700984658
:103C100005E0FEF7A3FCC01B022800D9A6E142463E
:103C200033681A42F5D0726823699A491B020A4028
:103C3000134373602368DA062BD5002D00D1DFE033
:103C4000E369914E002B00D1BCE1802332685B0018
:103C500013433360FEF782FC80239B0007009846E5
:103C600005E0FEF77BFCC01B022800D97EE142463E
:103C700033681342F5D07368874A1340626A13436E
:103C800073607268236A12021B06120A1343736080
:103C900023681A0719D563697B4E002B00D167E1B1
:103CA0000122336D13433365FEF758FC02230700EE
:103CB000984605E0FEF752FCC01B022800D955E1EA
:103CC0004246336D1A42F5D023685A0743D5802304
:103CD00000206D4A5B05916B8246194204D1916BBD
:103CE0000B43936301239A4680276C4E7F00336811
:103CF0003B4200D12AE18022A3685200934200D1C6
:103D0000D4E1002B00D105E1A021C9008B4200D1F4
:103D1000EEE15D4B62491A6D0A401A651A6D614900
:103D20000A401A65FEF71AFC8027574B0600984692
:103D30005D4BBF00994605E0FEF710FC801B48452F
:103D400000D913E143461B6D3B42F5D05346012B8E
:103D500000D170E123689B0620D5A3694A4E002B51
:103D600000D145E10121B26802270A43B260736BBA
:103D70004E4A0B4373638023116A9B010B4313620A
:103D8000FEF7ECFB804606E0FEF7E8FB4346C01A70
:103D9000022800D9EAE0B3681F42F5D0A36A002BDD
:103DA00019D00C2D00D186E1022B00D14AE1364C0E
:103DB0003F4A2368802613402360FEF7CFFBB604FA
:103DC000050005E0FEF7CAFB401B022800D9CDE044
:103DD00023683342F6D100200CE0002E00D1D2E659
:103DE000294A1268920300D4FBE66268002A00D0D8
:103DF000F7E6012002B0E0BCBA46B146A846F0BDE5
:103E0000214B1B689B0502D5E369002BF1D01E4AAC
:103E100021485168636A0140194351605068216A22
:103E20000002000A090601435160D16880225B0B41
:103E3000013312029A4013000A061E49120F8A5CCF
:103E40000020D3401C4A1360FEF754FB0028D1D158
:103E500023681EE70C4A13680B431360FEF77EFBD2
:103E6000094B0700994680239B02984604E0FEF721
:103E700075FBC01B642879D84B4642461B68134229
:103E8000F5D02368ADE6C04600100240FFFFFEFFFC
:103E9000FFFFFBFFFFE0FFFFFF1FFFFF0070004081
:103EA000FFFEFFFFFFFBFFFF881300000000014043
:103EB000FFFFFFFEC4AE000810000020002E00D05F
:103EC00098E6904A1268520702D5002B00D190E77D
:103ED0008C4E226971688C48120201400A43092104
:103EE000726032688A4313433360FFF7DFFDF36883
:103EF000864A1B061B0FD35CD840854B18600020F8
:103F0000FEF7F8FA002800D074E72368DA0600D438
:103F1000BFE692E67B4E7F4A336D13403365336DC7
:103F20007D4A13403365FEF719FB80239B009846BA
:103F30007A4B0700994604E0FEF710FBC01B48458A
:103F400014D84246336D1342F6D1FFE633683B4343
:103F50003360FEF703FB804633683B4200D0CAE67D
:103F6000FEF7FCFA4346C01A6428F5D9032041E75E
:103F70000122336D93433365FEF7F0FA0223070005
:103F8000984604E0FEF7EAFAC01B0228EED8424643
:103F9000336D1A42F6D1236897E6012233689343C2
:103FA0003360FEF7DBFA04230700984604E0FEF7CF
:103FB000D5FAC01B0228D9D8424633681A42F6D136
:103FC0002368A3E73368534A13403360FEF7C6FA09
:103FD00080239B000700984604E0FEF7BFFAC01B51
:103FE0000228C3D8424633681342F6D1236850E60C
:103FF0000122B3684A4993434A4AB360136A0B40AB
:104000001362FEF7ABFA02230700984604E0FEF7BE
:10401000A5FAC01B0228A9D84246B3681A42F6D1B5
:10402000BCE68023374ADB0211680B431360136838
:104030000343136012E7334A3B49936B0B4093638E
:10404000236888E62F4D394A2B68802713402B6060
:10405000FEF784FABF04060004E0FEF77FFA801B37
:10406000022883D82B683B42F7D1216BE36AEA68C8
:104070000B432F49234E0A401343626B1343EB60FB
:1040800080232A685B0413432B60FEF767FA8025C0
:104090000400AD0405E0FEF761FA001B022800D918
:1040A00064E733682B42F6D00020A3E6154A116D71
:1040B0000B43136536E6012B00D19AE68022114BA3
:1040C000E16ADB68520201201A408A4200D091E680
:1040D000F022216B92031A408A4200D08AE6C02067
:1040E00000040340606B181A431E9841C0B281E679
:1040F000044B0139186DFF3901431965196D0A43E5
:104100001A650FE600100240FFE0FFFFC4AE000892
:1041100010000020FFFEFFFFFFFBFFFF88130000E1
:10412000FFDFFFFF00000140FFFFFFEFFFFFFFFE8B
:10413000FFFF02FFF8B5CE46474604000D0080B5EC
:1041400000280DD0012258490B681340AB420CD215
:104150000B6893432B430B600B681A40AA4204D0B0
:104160000120C0BCB946B046F8BD23689A0706D501
:10417000F0204E49CA688243A0680243CA60DB0748
:1041800028D54A4B62681B68022A55D0032A50D0B2
:10419000012A66D09B05E3D50321444EF3688B4387
:1041A0001343F360FEF7DAF963680700022B48D087
:1041B000032B59D0012B67D00C2398463C4B9946D2
:1041C00004E0FEF7CBF9C01B484538D84246F368F7
:1041D0001A42F6D10121344A13680B40AB4205D98B
:1041E00013688B43136013681942B9D123685A07C7
:1041F00006D52E492F48CA680240E0680243CA60CB
:104200001B0707D529492369CA682B48DB000240F0
:104210001343CB60FFF74AFC244B284ADB681B069C
:104220001B0FD35CD840264B18600020FEF762F9C4
:1042300097E79B01B0D493E79B03ADD490E70320AD
:104240008FE70A3398461A4B994604E0FEF786F941
:10425000C01B4845F3D84246F3681340082BF5D1FC
:10426000B8E75B0798D47BE709339846104B99462B
:1042700004E0FEF773F9C01B4845E0D84246F368F6
:1042800013400C2BF5D1A5E70B339846084B994604
:1042900004E0FEF763F9C01B4845D0D84246F368F6
:1042A0001340042BF5D195E7002002400010024096
:1042B00088130000FFF8FFFFFFC7FFFFC4AE000830
:1042C00010000020044B054ADB685B055B0FD35CE4
:1042D000034A1068D840704700100240D4AE00086E
:1042E00010000020044B054ADB689B045B0FD35C85
:1042F000034A1068D840704700100240D4AE00084E
:1043000010000020F8B5CE4647460368040080B58B
:104310009A062DD580236F4A5B05916B00271942C1
:1043200061D080266C4D76002B68334265D065687D
:10433000C0222800674992030B681040134098423E
:1043400000D1A1E0C0232A009B021A409A4266D005
:10435000086D01001940184269D123685D48016D5C
:104360000A430265012F03D1826B5C490A408263D4
:10437000DA0706D503205749CA6C8243A068024376
:10438000CA649A0706D50C205249CA6C8243E06879
:104390000243CA645A0706D54E495148CA6C0240C6
:1043A00020690243CA641A0706D54A494D48CA6CB7
:1043B000024060690243CA645A0606D545494A4824
:1043C000CA6C0240E0690243CA6400201B0606D59D
:1043D000404A4649D36C0B40A1690B43D364C0BC2F
:1043E000B946B046F8BD8026916B3B4D0B439363B5
:1043F0002B6876000137334299D12B6833432B6009
:10440000FEF7ACF880462B68334200D08FE7FEF70A
:10441000A5F84346C01A6428F5D90320DFE70B68E6
:104420009B0354D40B6D1900114013424DD02368E7
:10443000914218D0990616D5264E316D8C466046AD
:104440002B490140306D894680468020414600035B
:1044500008433065306D274908404946306531656D
:104460006146C90519D4C02189028A4200D075E786
:10447000C0208003284017491F4D0A682A40024384
:104480000A60C022920269E70B6DC02219009202F5
:104490001140134216D02A40C9E7FEF75FF8802387
:1044A0009B009846154B0500994604E0FEF756F828
:1044B000401B4845B1D84246336D1342F6D0C02266
:1044C0006568920223682A40CDE72368D3E701207C
:1044D00085E7C0460010024000700040FFFFFFEF7C
:1044E000FFF3FFFFFFCFFFFFFFFFFFFBFFFFF3FF28
:1044F000FFFFFCFFFFFFF7FFFFFFCFFF8813000068
:1045000070B5041E38D0002383625133C35C00268B
:10451000002B2BD051210223402063542268A56830
:104520001368834313606368A0692B43E5682B43DA
:1045300025692B4365692B43E5692B43256A2B438A
:104540008025AD0005402B43334313600423000C4A
:104550000340606A03435360D36908480340D36152
:104560000023002063650133635470BD5033C6548B
:1045700001F04CFBA66ACDE70120F6E7FFF7FFFF4D
:1045800010B5041E2FD03923C35CDAB2002B25D01E
:10459000392302228021E2542268C90513688A4225
:1045A00005D012498A4202D011498A4207D17021AE
:1045B0008B43A1680B430F490B4021690B438021BA
:1045C0008B43616900200B431360E368D362636827
:1045D0009362012353613922A35410BD3833C2546E
:1045E00001F0B4FCD4E70120F7E7C0460008014021
:1045F00000140140FFFCFFFF03681F2201200A4056
:10460000010091400A00196A91431962196A0A432C
:104610001A62072299680A40062A02D01A681043D3
:10462000186000207047C04630B51F240C4001219F
:104630000D00A54003681A6AAA431A621A6A1A6230
:104640001C6A054A144202D11A688A431A60392347
:104650000122C254002030BD111100003823F0B5F2
:10466000C45C012C00D1A4E001250224C55401330F
:10467000C454082A5BD032D8002A00D179E0042A39
:1046800025D1102403684C4D1A6AA2431A621A6A93
:104690005E689C6925400C6824022C432025AA43AF
:1046A00015008A685E6012019C614C682A439C6315
:1046B0001A6280229C69120122439A619A693F4CD6
:1046C00022409A61CA689C69120222439A61392386
:1046D0000122C2540022013BC2540020F0BD0C2A2A
:1046E000F5D10368364C1A6A334D22401A621A6AB1
:1046F0005E68DC6925400C6824022C43314D15406E
:104700008A685E601203DC614C682A431C641A628A
:104710008022DC6912012243DA61DA69274C2240E7
:10472000DA61CA68DC6912022243DA61CFE77326D4
:104730000368254D1C6A2C401C621C6A5F68DD6999
:10474000B5430E683543214E26408C685F602402D5
:10475000DD614D683443DD631C62DC69C968224356
:104760000424DA61DA69A243DA61DA690A43DA61B8
:10477000ADE7732703681A6AAA431A621A6A5E6869
:104780009D69A2438C68BD430F6822434C683D433A
:104790005E609D615C6308241A629A69C96822435D
:1047A0009A619A69043CA2439A619A690A439A61A0
:1047B0008DE7022092E7C046FF8CFFFFFFFBFFFF63
:1047C000FFEFFFFFFFDFFFFFFFFEFFFFFFFDFFFF2C
:1047D000F0B53825435D012B15D03926022370270B
:1047E000835504686268A368BA430F6849683A430E
:1047F0008027BB430B436260A360012383550023E2
:1048000043550020F0BD0220FCE7C046F0B54F46FE
:104810004646D646C0B51E00436F04000D00170083
:10482000202B00D06BE000294CD0002A4AD08023F6
:1048300082685B019A4240D07023E25C012A5ED01C
:104840000122E2540023E36721336367FDF786FE0C
:1048500050230022E7520233E75280239246A26897
:1048600081465B019A424CD05223E35A002B00D17F
:104870006CE08023522798462268731C28D1414659
:10488000D3691942FBD0002D30D02B7801359362CB
:10489000E35B013B9BB2E353E35B002BEDD140258F
:1048A000731C46D14021D3691942FCD02023002239
:1048B000636750330020E25405E00369002BBBD14D
:1048C000CB07B9D50120E0BCBA46B146A846F0BD39
:1048D0004146D3691942D6D1FDF740FE4B46C01A76
:1048E000864214D3002E12D02268C6E753461B8896
:1048F000DB05DB0D936202239C46E244C8E70220FD
:10490000E1E72369002BAFD1AA460025ACE7236875
:104910000F491A6803200A401A609A68A331FF31D0
:104920008A439A60202300226367A3675033E254CE
:10493000C9E7D3691D42B9D1FDF710FE4B46C01A35
:104940008642E4D3002EE2D02268A9E72268A6E7D7
:104950005FFEFFFF7047C0467047C0460268F8B56B
:10496000D36904001068956819071ED120211942E7
:1049700002D0014200D07AE0802149030B4202D0EC
:104980006D0200D577E08021194206D140211942FD
:1049900002D0014200D077E0F8BD0142F6D0636E4C
:1049A000002BF9D020009847F6E701269021370028
:1049B00049002F4001403943DED01E4205D0C105D9
:1049C00003D51662E16F0E43E6670221194243D018
:1049D000002F06D004251162E16F2943E1671D42D3
:1049E0003ED108251D4207D0202101400F4303D0AE
:1049F0001562E16F0D43E567E16F0029CCD02021FE
:104A0000194201D001424AD140210823E06F956844
:104A100003400D401D4349D01368274803401360ED
:104A200093682330FF30834393602023A3670023E0
:104A300023669368194223D09368E06E8B4393609A
:104A400000281DD01D4B8363FEF7E2F90028A3D098
:104A5000E06E836B98479FE75907C2D5002FC0D0FF
:104A6000042102251162E16F2943E167B9E7236E52
:104A7000002B97D190E72000116200F053FA8BE7EA
:104A80002000FFF769FF87E7136820008B4313605E
:104A90002023636700236366FFF75CFF7CE7236ED8
:104AA000002BB1D0200098472268ADE72000FFF727
:104AB00053FFE56770E7C046DFFEFFFFC14A00080D
:104AC00000235A2210B5806A8352083A8352FFF7B6
:104AD00043FF10BD436A30B5DA0706D50168284C9C
:104AE0004A682240846A22434A609A0706D50168D0
:104AF000244C4A682240C46A22434A605A0706D5B9
:104B00000168214C4A682240046B22434A601A071C
:104B100006D501681D4C4A682240446B22434A6016
:104B2000DA0606D501681A4C8A682240846B224353
:104B30008A609A0606D50168164C8A682240C46BC2
:104B400022438A605A060AD50168134D4A68046CEC
:104B50002A4022434A6080225203944209D01B0615
:104B600006D502680D4953680B40816C0B435360B6
:104B700030BD4A680A4C2240446C22434A60EEE74A
:104B8000FFFFFDFFFFFFFEFFFFFFFBFFFF7FFFFFBC
:104B9000FFEFFFFFFFDFFFFFFFFFEFFFFFFFF7FF6D
:104BA000FFFF9FFFF0B50023C646040000B5C367B2
:104BB000FDF7D4FC236805001A6812070CD41A68A4
:104BC00052072AD42023002200206367A3675033B2
:104BD000E25480BCB846F0BD80268027B603BF04EF
:104BE000DA691100314088463242E8D1FDF7B6FC5F
:104BF0002368401BB842F3D31A68104903200A40C7
:104C00001A609A68A331FF318A439A602023424692
:104C10006367A3675033E254DBE780268027F603FF
:104C2000BF04DB691A00324090463342CAD1FDF717
:104C300095FC2368401BB842F3D3DDE75FFEFFFF1E
:104C4000F8B5041E30D0436F002B44D0242301213B
:104C50006367236825691A688A431A60A26818681E
:104C60002A436569E1692A439A4D0A432840024371
:104C70001A605A6898480240E068024397485A60B0
:104C8000A26983422CD0256A98682A43944D284013
:104C900002439A60934A934208D0934A934200D1C8
:104CA000CAE00023236663660120F8BD8F4BDA6CEF
:104CB00003231340013B022B00D989E08C4AD55CC9
:104CC00080231B02994200D192E0082DE9D8894B3C
:104CD000AD005B599F467022835401F09DF9B5E702
:104CE00099687F4801400A439A60C02280217F482A
:104CF0001201C36C090113408B4200D1D5E00DD8DD
:104D0000002B00D1CEE08022D2009342C9D1FEF721
:104D1000CDFE002806D12066606637E09342C0D100
:104D20008020000265686B005B198342B9D82B03B1
:104D30009842B6D80027030E02026E0892197B41F2
:104D4000100019002A000023FBF7AEFB6A4BC218C3
:104D50006A4B9A42A5D82368D8602766676615E033
:104D60006368580880231B029C4660446168FBF717
:104D7000E7F90004000C0300614A103B934200D99C
:104D80008FE72368D860002323666366636A002B7D
:104D90004ED123685B495A6820000A402A215A6094
:104DA0009A688A439A601A6829390A431A60FFF799
:104DB000F9FE7AE7FEF77AFE63685B081818D5E714
:104DC0004A4B1B68DB067CD5636858084E4BCBE723
:104DD00080231B0299425ED0FFF784FA63685B0868
:104DE0001818C3E7FFF76EFA63685B081818BDE789
:104DF000082D03D8454AAB00D3589F460125002013
:104E000003003F4A103B934200D94AE70F230200B8
:104E10009A4313000007400F184300232268D06014
:104E200023666366012D00D13EE7636A002BB0D094
:104E30002000FFF74FFEACE72C4BDA6C0C2313403D
:104E4000334AD55C3CE76368580880235B029C4684
:104E500060446168FBF774F900040025000CCFE79B
:104E6000FEF724FE636840005B08C018F1E71F4BA3
:104E70001B68DB0629D563685808264BE7E7FFF770
:104E800021FA636840005B086168C018FBF758F9B5
:104E90000004000CB4E7FFF725FA636840005B08E4
:104EA000C018D6E7FFF70EFA33E703681020184062
:104EB00043425841184B40421840134B9C466044B3
:104EC00030E763685808154B4EE763685808144B81
:104ED000BDE7C046F369FFEFFFCFFFFF004800408A
:104EE000FFF4FFFF00380140004400400010024082
:104EF00050AD000808AD000800FDFFFFFFFC0F00EB
:104F0000EFFF0000FFB7FFFF00093D002CAD0008D8
:104F100054AD000800127A00001BB7000024F40012
:104F20000048E8017047C046054B064A136000225E
:104F30001A605A601A72DA601A825A617047C04663
:104F400014020020AC02002010B50D4C002808D03F
:104F5000012810D0022809D020000A4901F006F9E2
:104F600010BD2000084901F001F9F5E720000749CC
:104F700001F0FCF8F0E72000054901F0F7F8EBE755
:104F80000808002074AD000878AD0008E0AD000806
:104F9000ACAD0008F0B5D6464F4646460023C0B536
:104FA000714A84B0138004000F000822002102A877
:104FB000019301F041F96D4B6D4D98461D60002F36
:104FC00000D1CAE023782B700123012F07D9414675
:104FD000E25C0968CA5401339AB29742F7D8434653
:104FE00019687A1C002328008B54624901F0E0FF05
:104FF000002820D02A21280001F0CCFF00281AD058
:10500000002F18D000260025002307E0591C01AC12
:10501000E254CBB20136B2B297420CD94246126882
:10502000925D2C2AF2D1022B37D8092D31D8524A61
:10503000AB00D3589F46002004B0E0BCBA46B1464E
:10504000A846F0BD00204D4B1B6858610120F3E7D6
:10505000002001AC494B1B6858740C220021200031
:10506000013501F0E9F8EDB20023D3E7002001ACEF
:10507000424B1B68D860F0E7002001AC3F4B1B6837
:105080005860EAE701AC3D4B227819680A721B6848
:105090001A74082D66D801ACDFE701AC00212000AE
:1050A00002F0E0FD092DF4D8354AAB00D3589F46F5
:1050B00001AC2278314BEAE7304B324A1B6801AC35
:1050C0001A60CAE7FBF710FA2E4A2C4B2E498218B9
:1050D0001B688A4244D92D4A944660441860BCE754
:1050E000FBF702FAAFE72A4A2A4BFCF7A9FAFBF7CB
:1050F000FBF9C0B2AEE7284B0022FCF7A1FAFBF7A0
:10510000F3F926498246FBF7A1F8880040184000D1
:105110003C21FBF715F8214981465046FBF710F872
:105120001F4B58434844A3E71B4B0022FCF788FA67
:10513000FBF7DAF919498246FBF788F8880040182E
:1051400040003C21FAF7FCFF144981465046FAF72B
:10515000F7FF134B5843484490E70122290041E7E9
:105160001A607AE7012067E7B4040020B004002049
:105170002C02002014AE00081CAE0008AC02002077
:1051800044AE00083075000080A90300B0CBFCFFDE
:105190006F1283C0CAA1FD3F0088C34040420F0088
:1051A000A0860100F0B5CE464746324B80B5984602
:1051B0001B6816271978FA23012687B02E4D9B000D
:1051C0006F4404009946202202930196012328008F
:1051D0000097FEF7F7F943461B68232219784B46E0
:1051E000019616366E440293280001230096FEF7BE
:1051F000E9F9012C09D0022C32D00020002C27D054
:1052000007B0C0BCB946B046F0BD08223B78934316
:105210003B7033789343337043461B6801241978FD
:10522000FA239B009946029320220123280001942F
:105230000097FEF795F843461B68232219784B46E2
:1052400028000293019401230096FEF789F8D7E71E
:1052500008223B7893433B70337813433370DBE78A
:1052600008223B78134308223B7033789343337012
:10527000D2E7C046C004002068050020F0B5002237
:10528000CE464746604B614E4000C0B280B51870B4
:105290005A809A80DA803360FA235D4D87B081B2FC
:1052A000DB0028000232FEF7D7FA002804D007B04E
:1052B000C0BCB946B046F0BD1724012733686C4422
:1052C0001978544B0F220293280001230197009470
:1052D000FEF778F92378332BE9D1033B2370336849
:1052E00022221978FA239B00984602932800012372
:1052F00001970094FEF734F80020FFF753FF33685E
:105300002322197843462800029301970123009431
:10531000FEF758F9202399464A462378280013437C
:10532000237033682322197843460197029300942F
:105330000123FEF715F83368202219784346280028
:105340000293019701230094FEF73CF94A46237823
:1053500028001343237033682022197843460197AD
:10536000029300940123FDF7FBFF33682022197894
:10537000434628000293019701230094FEF722F987
:1053800001222378280013432370336820221978E0
:1053900043460197029300940123FDF7E1FF336830
:1053A0002022197843462800029301970123009494
:1053B000FEF708F90222237828001343237033688C
:1053C0002022197843460197029300940123FDF7A8
:1053D000C7FF3368202219784346280002930197BB
:1053E00001230094FEF7EEF80422237828001343EB
:1053F0002370336820221978434601970293009462
:105400000123FDF7ADFF52E7B8040020C0040020DF
:1054100068050020DC05000010B582B008220021DC
:10542000684600F009FF07221E4C2C21A263C2220D
:10543000FF326262C13AFF3A62541B490023216085
:105440008021C9056160082120002284E363A362F2
:1054500023636363A360E36022616161A361E3612D
:10546000FDF71CF9002814D18023104A5B0169461E
:10547000200000920193FDF77DFB00280FD10C4B1B
:10548000694620000093FDF775FB002804D102B0A7
:1054900010BD00F035FBE7E700F032FBF7E700F066
:1054A0002FFBECE70C050020002401400001002048
:1054B0000002002470B5040088B01422002102A864
:1054C00000F0BAFE204B22689A4201D008B070BDAD
:1054D00080221E4B9200596B00260A435A63022217
:1054E000D96A1B481143D962DB6A02A91A400192AA
:1054F000019B03220323049602920393FDF7FEFC13
:10550000144D154B28002B6080232B6180336B6179
:1055100080231B01AB6120236E60AE60EE60EB6107
:105520002E62FDF7E9FB00280AD1002200210C20A1
:10553000E564AC62FDF78AFB0C20FDF7B9FBC5E71B
:1055400000F0DEFAF1E7C0460024014000100240FE
:1055500000040050C404002008000240FA2370B583
:10556000DB0086B0041C984200D91C1C08220021D4
:10557000684600F061FE1022002102A800F05CFEE7
:10558000A3B2322B00D23224A1B22148FAF762FE34
:105590008023204CDB0523601F4B013885B21C495A
:1055A0001868FAF7CDFD002301386060A36023611D
:1055B000200080336E08E5606361FEF7E1FF00289C
:1055C0001CD1002200236946200000920193FFF7BE
:1055D000FFF8002818D16023029300230022200046
:1055E00002A9039604930593FFF738F8002808D121
:1055F00000212000FFF700F806B070BD00F080FA2F
:10560000DFE700F07DFAF3E700F07AFAE3E7C0465F
:10561000A0860100CC0600201000002010B500215B
:105620000148FFF701F810BDCC06002001230A4A0B
:1056300000B5116B83B019431163126B0021134045
:10564000019300220920019BFDF700FB0920FDF7D3
:105650002FFB03B000BDC0460010024030B58BB038
:105660001422002104A800F0E7FD0422384B394C35
:10567000D96A20001143D962D96A00250A400092F4
:10568000009A8022D96A1143D962D96A0A400192EC
:10569000019A0122D96A1143D962D96A0A40029259
:1056A000029A0222D96A1143D962DB6A3C211A406C
:1056B00003920022039BFDF71DFDE022032312024B
:1056C00004A92548049205930695FDF717FCA02030
:1056D0000323224A04A9C005049205930695FDF709
:1056E0000DFC0422012304920593012200232000D3
:1056F00004A906920793FDF701FCF0220323200082
:10570000120204A9049205930695FDF7F7FB3822CF
:1057100001230492059300220123200004A906928C
:105720000793FDF7EBFBC0220D4B2000920004A96C
:10573000049205930695FDF7E1FB00220021072066
:10574000FDF784FA0720FDF7B3FA0BB030BDC04671
:10575000001002400004005000080050031900002F
:105760000000211010B51A4B1A4C23601A4B200070
:105770006360D823A360D73BE360002323616361A8
:10578000A361E3612362FDF791FD00280CD10021A4
:105790002000FEF73DF900280ED100212000FEF781
:1057A0005FF9002810D110BD00F0AAF900212000F7
:1057B000FEF72EF90028F0D000F0A2F90021200019
:1057C000FEF74EF90028EED000F09AF9EBE7C0465C
:1057D0000054004068050020BB7C700030B5040018
:1057E00089B01422002102A800F026FD134B226884
:1057F0009A4201D009B030BD0223114C0125E26A62
:1058000010481A43E262E26A02A913400193C022DF
:10581000019B122302920393012203230695049213
:105820000593FDF76BFB8023A26B9B031343A363DC
:10583000054B1A6813682B431360DBE700540040E4
:1058400000100240000400506805002030B59DB0F3
:105850002022002110A800F0EFFC1422002168464D
:1058600000F0EAFC2022002106A800F0E5FC1A491D
:105870001A4A0B680EA81A4080231B0113430B60C1
:10588000802301225B020E920F93802302225B028F
:105890001892199380228023D202DB031A921B9361
:1058A000FEF756F90F2203230024002500920193EE
:1058B000002301216846049302940395FEF73AFC05
:1058C0000F2306A8089409950A940B950693FEF7F2
:1058D00019FD1DB030BDC04600700040FFE7FFFF5E
:1058E000F0B50023C64601213E4A00B513603E4A8A
:1058F00013703E4A13603E4A11703E4A13703E4A8E
:1059000013803E4A1380FCF70DFEFFF79FFFFFF761
:105910000BFBFFF7A3FE00F027FB00F041FB00F0BC
:105920005DFB00F0A5FAFFF781FEFFF775FDFFF7BD
:1059300019FF00F049F9C820FFF710FE442000F0DD
:10594000E1F81920FFF79AFCFA204000FCF70CFE62
:10595000C8204000FFF702FE00F020F90120FFF709
:10596000F3FA96208000FFF7F9FD00F0D9F8C8207F
:105970008000FFF7F3FD224C082222492000FCF7AB
:10598000E1FFFA204000FCF7EFFDFFF747FE1E4B5A
:105990001E4E98461E4D1F4F012210211E48FDF736
:1059A000A9FBC820FCF7E0FD002210211A48FDF7F2
:1059B000A1FB2000FCF754FF2000FDF70DF8C0B25A
:1059C000307032784146D2B2280001F0C3FA290083
:1059D000380000F0CBFB2000FCF76EFF0F48FCF70F
:1059E000C3FDD9E7B4050020B8050020400600201B
:1059F0006E0600206F060020BA050020B4040020C7
:105A00000C050020440600206CAE0008BC050020F8
:105A1000C005002088070020000400508813000003
:105A2000802370B55B00984204D080239B0098428D
:105A30001DD070BDFCF792FD1A4C2368C01AFA23E2
:105A4000DB009842F5D9184D20212A781748534297
:105A50005A41D2B22A70FDF74DFB28784342584193
:105A6000C0B2FFF771FAFCF779FD2060E1E7FCF7BF
:105A700075FD0C4C2368C01AFA23DB009842D8D974
:105A80000B4B0A481A7851424A410821D2B21A7087
:105A9000FDF730FB0022074B1A70FCF75FFD20601A
:105AA000C7E7C046B4050020B80500200004005038
:105AB0006E0600206F0600200E4988680B68844639
:105AC000C868634484461A0008694B686344844686
:105AD000486962448446C86963448446896963446A
